{
  "contractName": "Voting",
  "abi": [
    {
      "inputs": [],
      "stateMutability": "nonpayable",
      "type": "constructor"
    },
    {
      "anonymous": false,
      "inputs": [
        {
          "indexed": true,
          "internalType": "address",
          "name": "voter",
          "type": "address"
        },
        {
          "indexed": false,
          "internalType": "uint256",
          "name": "pollIndex",
          "type": "uint256"
        },
        {
          "indexed": false,
          "internalType": "uint256",
          "name": "optionIndex",
          "type": "uint256"
        },
        {
          "indexed": false,
          "internalType": "string",
          "name": "qrCode",
          "type": "string"
        }
      ],
      "name": "Voted",
      "type": "event"
    },
    {
      "inputs": [],
      "name": "admin",
      "outputs": [
        {
          "internalType": "address",
          "name": "",
          "type": "address"
        }
      ],
      "stateMutability": "view",
      "type": "function",
      "constant": true
    },
    {
      "inputs": [
        {
          "internalType": "address",
          "name": "",
          "type": "address"
        }
      ],
      "name": "hasVoted",
      "outputs": [
        {
          "internalType": "bool",
          "name": "",
          "type": "bool"
        }
      ],
      "stateMutability": "view",
      "type": "function",
      "constant": true
    },
    {
      "inputs": [
        {
          "internalType": "uint256",
          "name": "",
          "type": "uint256"
        }
      ],
      "name": "polls",
      "outputs": [
        {
          "internalType": "string",
          "name": "question",
          "type": "string"
        }
      ],
      "stateMutability": "view",
      "type": "function",
      "constant": true
    },
    {
      "inputs": [
        {
          "internalType": "uint256",
          "name": "",
          "type": "uint256"
        }
      ],
      "name": "voters",
      "outputs": [
        {
          "internalType": "address",
          "name": "",
          "type": "address"
        }
      ],
      "stateMutability": "view",
      "type": "function",
      "constant": true
    },
    {
      "inputs": [
        {
          "internalType": "string",
          "name": "_question",
          "type": "string"
        },
        {
          "internalType": "string[]",
          "name": "_options",
          "type": "string[]"
        }
      ],
      "name": "createPoll",
      "outputs": [],
      "stateMutability": "nonpayable",
      "type": "function"
    },
    {
      "inputs": [],
      "name": "pollsCount",
      "outputs": [
        {
          "internalType": "uint256",
          "name": "",
          "type": "uint256"
        }
      ],
      "stateMutability": "view",
      "type": "function",
      "constant": true
    },
    {
      "inputs": [
        {
          "internalType": "uint256",
          "name": "_pollIndex",
          "type": "uint256"
        }
      ],
      "name": "getPollOptions",
      "outputs": [
        {
          "internalType": "string[]",
          "name": "",
          "type": "string[]"
        }
      ],
      "stateMutability": "view",
      "type": "function",
      "constant": true
    },
    {
      "inputs": [
        {
          "internalType": "uint256",
          "name": "_pollIndex",
          "type": "uint256"
        }
      ],
      "name": "getPollQuestion",
      "outputs": [
        {
          "internalType": "string",
          "name": "",
          "type": "string"
        }
      ],
      "stateMutability": "view",
      "type": "function",
      "constant": true
    },
    {
      "inputs": [
        {
          "internalType": "uint256",
          "name": "pollIndex",
          "type": "uint256"
        },
        {
          "internalType": "uint256",
          "name": "optionIndex",
          "type": "uint256"
        },
        {
          "internalType": "string",
          "name": "qrCode",
          "type": "string"
        }
      ],
      "name": "vote",
      "outputs": [],
      "stateMutability": "nonpayable",
      "type": "function"
    },
    {
      "inputs": [
        {
          "internalType": "uint256",
          "name": "_pollIndex",
          "type": "uint256"
        }
      ],
      "name": "getResults",
      "outputs": [
        {
          "internalType": "uint256[]",
          "name": "",
          "type": "uint256[]"
        }
      ],
      "stateMutability": "view",
      "type": "function",
      "constant": true
    },
    {
      "inputs": [],
      "name": "getVoters",
      "outputs": [
        {
          "internalType": "address[]",
          "name": "",
          "type": "address[]"
        }
      ],
      "stateMutability": "view",
      "type": "function",
      "constant": true
    },
    {
      "inputs": [
        {
          "internalType": "uint256",
          "name": "_pollIndex",
          "type": "uint256"
        }
      ],
      "name": "getPollVotes",
      "outputs": [
        {
          "internalType": "uint256[]",
          "name": "",
          "type": "uint256[]"
        }
      ],
      "stateMutability": "view",
      "type": "function",
      "constant": true
    }
  ],
  "bytecode": "0x608060405234801561001057600080fd5b50336000806101000a81548173ffffffffffffffffffffffffffffffffffffffff021916908373ffffffffffffffffffffffffffffffffffffffff160217905550611a68806100606000396000f3fe608060405234801561001057600080fd5b50600436106100b45760003560e01c8063ac2f007411610071578063ac2f00741461019f578063bbff7166146101cf578063cdd72253146101ff578063da58c7d91461021d578063f75627651461024d578063f851a4401461027d576100b4565b806309eef43e146100b9578063179d760d146100e95780637e3d71c31461010757806381a60c0d146101235780638ca3432614610153578063a1bbfc0514610183575b600080fd5b6100d360048036038101906100ce9190610fd5565b61029b565b6040516100e0919061159b565b60405180910390f35b6100f16102bb565b6040516100fe9190611698565b60405180910390f35b610121600480360381019061011c9190610ffe565b6102c8565b005b61013d6004803603810190610138919061106a565b610436565b60405161014a9190611579565b60405180910390f35b61016d6004803603810190610168919061106a565b6105d0565b60405161017a91906115b6565b60405180910390f35b61019d60048036038101906101989190611093565b6106ad565b005b6101b960048036038101906101b4919061106a565b6109fb565b6040516101c691906115b6565b60405180910390f35b6101e960048036038101906101e4919061106a565b610ab1565b6040516101f69190611579565b60405180910390f35b610207610c04565b6040516102149190611535565b60405180910390f35b6102376004803603810190610232919061106a565b610c92565b604051610244919061151a565b60405180910390f35b6102676004803603810190610262919061106a565b610cd1565b6040516102749190611557565b60405180910390f35b610285610df5565b604051610292919061151a565b60405180910390f35b60026020528060005260406000206000915054906101000a900460ff1681565b6000600380549050905090565b60008054906101000a900473ffffffffffffffffffffffffffffffffffffffff1673ffffffffffffffffffffffffffffffffffffffff163373ffffffffffffffffffffffffffffffffffffffff1614610356576040517f08c379a000000000000000000000000000000000000000000000000000000000815260040161034d90611638565b60405180910390fd5b60006003600181600181540180825580915050039060005260206000209060040201905082816000019080519060200190610392929190610e19565b5060005b825181101561043057816001018382815181106103dc577f4e487b7100000000000000000000000000000000000000000000000000000000600052603260045260246000fd5b602002602001015190806001815401808255809150506001900390600052602060002001600090919091909150908051906020019061041c929190610e19565b5080806104289061191d565b915050610396565b50505050565b6060600380549050821061047f576040517f08c379a0000000000000000000000000000000000000000000000000000000008152600401610476906115f8565b60405180910390fd5b6000600383815481106104bb577f4e487b7100000000000000000000000000000000000000000000000000000000600052603260045260246000fd5b906000526020600020906004020190506000816001018054905067ffffffffffffffff811115610514577f4e487b7100000000000000000000000000000000000000000000000000000000600052604160045260246000fd5b6040519080825280602002602001820160405280156105425781602001602082028036833780820191505090505b50905060005b82600101805490508110156105c557826002016000828152602001908152602001600020548282815181106105a6577f4e487b7100000000000000000000000000000000000000000000000000000000600052603260045260246000fd5b60200260200101818152505080806105bd9061191d565b915050610548565b508092505050919050565b60606003828154811061060c577f4e487b7100000000000000000000000000000000000000000000000000000000600052603260045260246000fd5b90600052602060002090600402016000018054610628906118eb565b80601f0160208091040260200160405190810160405280929190818152602001828054610654906118eb565b80156106a15780601f10610676576101008083540402835291602001916106a1565b820191906000526020600020905b81548152906001019060200180831161068457829003601f168201915b50505050509050919050565b600260003373ffffffffffffffffffffffffffffffffffffffff1673ffffffffffffffffffffffffffffffffffffffff16815260200190815260200160002060009054906101000a900460ff161561073a576040517f08c379a000000000000000000000000000000000000000000000000000000000815260040161073190611658565b60405180910390fd5b6003805490508310610781576040517f08c379a000000000000000000000000000000000000000000000000000000000815260040161077890611618565b60405180910390fd5b6000600384815481106107bd577f4e487b7100000000000000000000000000000000000000000000000000000000600052603260045260246000fd5b9060005260206000209060040201905080600101805490508310610816576040517f08c379a000000000000000000000000000000000000000000000000000000000815260040161080d906115d8565b60405180910390fd5b80600301826040516108289190611503565b908152602001604051809103902060009054906101000a900460ff1615610884576040517f08c379a000000000000000000000000000000000000000000000000000000000815260040161087b90611678565b60405180910390fd5b80600201600084815260200190815260200160002060008154809291906108aa9061191d565b91905055506001600260003373ffffffffffffffffffffffffffffffffffffffff1673ffffffffffffffffffffffffffffffffffffffff16815260200190815260200160002060006101000a81548160ff0219169083151502179055506001816003018360405161091b9190611503565b908152602001604051809103902060006101000a81548160ff0219169083151502179055506001339080600181540180825580915050600190039060005260206000200160009091909190916101000a81548173ffffffffffffffffffffffffffffffffffffffff021916908373ffffffffffffffffffffffffffffffffffffffff1602179055503373ffffffffffffffffffffffffffffffffffffffff167fd969941a45ed3675d614ac47cc132816bf1a99f3ac1180b6c8cdcb7b2c163bf28585856040516109ed939291906116b3565b60405180910390a250505050565b60038181548110610a0b57600080fd5b9060005260206000209060040201600091509050806000018054610a2e906118eb565b80601f0160208091040260200160405190810160405280929190818152602001828054610a5a906118eb565b8015610aa75780601f10610a7c57610100808354040283529160200191610aa7565b820191906000526020600020905b815481529060010190602001808311610a8a57829003601f168201915b5050505050905081565b6060600060038381548110610aef577f4e487b7100000000000000000000000000000000000000000000000000000000600052603260045260246000fd5b906000526020600020906004020190506000816001018054905067ffffffffffffffff811115610b48577f4e487b7100000000000000000000000000000000000000000000000000000000600052604160045260246000fd5b604051908082528060200260200182016040528015610b765781602001602082028036833780820191505090505b50905060005b8260010180549050811015610bf95782600201600082815260200190815260200160002054828281518110610bda577f4e487b7100000000000000000000000000000000000000000000000000000000600052603260045260246000fd5b6020026020010181815250508080610bf19061191d565b915050610b7c565b508092505050919050565b60606001805480602002602001604051908101604052809291908181526020018280548015610c8857602002820191906000526020600020905b8160009054906101000a900473ffffffffffffffffffffffffffffffffffffffff1673ffffffffffffffffffffffffffffffffffffffff1681526020019060010190808311610c3e575b5050505050905090565b60018181548110610ca257600080fd5b906000526020600020016000915054906101000a900473ffffffffffffffffffffffffffffffffffffffff1681565b606060038281548110610d0d577f4e487b7100000000000000000000000000000000000000000000000000000000600052603260045260246000fd5b9060005260206000209060040201600101805480602002602001604051908101604052809291908181526020016000905b82821015610dea578382906000526020600020018054610d5d906118eb565b80601f0160208091040260200160405190810160405280929190818152602001828054610d89906118eb565b8015610dd65780601f10610dab57610100808354040283529160200191610dd6565b820191906000526020600020905b815481529060010190602001808311610db957829003601f168201915b505050505081526020019060010190610d3e565b505050509050919050565b60008054906101000a900473ffffffffffffffffffffffffffffffffffffffff1681565b828054610e25906118eb565b90600052602060002090601f016020900481019282610e475760008555610e8e565b82601f10610e6057805160ff1916838001178555610e8e565b82800160010185558215610e8e579182015b82811115610e8d578251825591602001919060010190610e72565b5b509050610e9b9190610e9f565b5090565b5b80821115610eb8576000816000905550600101610ea0565b5090565b6000610ecf610eca84611722565b6116f1565b9050808382526020820190508260005b85811015610f0f5781358501610ef58882610f96565b845260208401935060208301925050600181019050610edf565b5050509392505050565b6000610f2c610f278461174e565b6116f1565b905082815260208101848484011115610f4457600080fd5b610f4f8482856118a9565b509392505050565b600081359050610f6681611a04565b92915050565b600082601f830112610f7d57600080fd5b8135610f8d848260208601610ebc565b91505092915050565b600082601f830112610fa757600080fd5b8135610fb7848260208601610f19565b91505092915050565b600081359050610fcf81611a1b565b92915050565b600060208284031215610fe757600080fd5b6000610ff584828501610f57565b91505092915050565b6000806040838503121561101157600080fd5b600083013567ffffffffffffffff81111561102b57600080fd5b61103785828601610f96565b925050602083013567ffffffffffffffff81111561105457600080fd5b61106085828601610f6c565b9150509250929050565b60006020828403121561107c57600080fd5b600061108a84828501610fc0565b91505092915050565b6000806000606084860312156110a857600080fd5b60006110b686828701610fc0565b93505060206110c786828701610fc0565b925050604084013567ffffffffffffffff8111156110e457600080fd5b6110f086828701610f96565b9150509250925092565b6000611106838361113e565b60208301905092915050565b600061111e838361129c565b905092915050565b600061113283836114e5565b60208301905092915050565b61114781611861565b82525050565b61115681611861565b82525050565b6000611167826117ae565b6111718185611801565b935061117c8361177e565b8060005b838110156111ad57815161119488826110fa565b975061119f836117da565b925050600181019050611180565b5085935050505092915050565b60006111c5826117b9565b6111cf8185611812565b9350836020820285016111e18561178e565b8060005b8581101561121d57848403895281516111fe8582611112565b9450611209836117e7565b925060208a019950506001810190506111e5565b50829750879550505050505092915050565b600061123a826117c4565b6112448185611823565b935061124f8361179e565b8060005b838110156112805781516112678882611126565b9750611272836117f4565b925050600181019050611253565b5085935050505092915050565b61129681611873565b82525050565b60006112a7826117cf565b6112b18185611834565b93506112c18185602086016118b8565b6112ca816119f3565b840191505092915050565b60006112e0826117cf565b6112ea8185611845565b93506112fa8185602086016118b8565b611303816119f3565b840191505092915050565b6000611319826117cf565b6113238185611856565b93506113338185602086016118b8565b80840191505092915050565b600061134c601483611845565b91507f496e76616c6964206f7074696f6e20696e6465780000000000000000000000006000830152602082019050919050565b600061138c601483611845565b91507f506f6c6c20646f6573206e6f742065786973742e0000000000000000000000006000830152602082019050919050565b60006113cc601283611845565b91507f496e76616c696420706f6c6c20696e64657800000000000000000000000000006000830152602082019050919050565b600061140c602083611845565b91507f4f6e6c79207468652061646d696e2063616e2063726561746520706f6c6c732e6000830152602082019050919050565b600061144c601683611845565b91507f596f75206861766520616c726561647920766f746564000000000000000000006000830152602082019050919050565b600061148c602283611845565b91507f5468697320515220636f64652068617320616c7265616479206265656e20757360008301527f65640000000000000000000000000000000000000000000000000000000000006020830152604082019050919050565b6114ee8161189f565b82525050565b6114fd8161189f565b82525050565b600061150f828461130e565b915081905092915050565b600060208201905061152f600083018461114d565b92915050565b6000602082019050818103600083015261154f818461115c565b905092915050565b6000602082019050818103600083015261157181846111ba565b905092915050565b60006020820190508181036000830152611593818461122f565b905092915050565b60006020820190506115b0600083018461128d565b92915050565b600060208201905081810360008301526115d081846112d5565b905092915050565b600060208201905081810360008301526115f18161133f565b9050919050565b600060208201905081810360008301526116118161137f565b9050919050565b60006020820190508181036000830152611631816113bf565b9050919050565b60006020820190508181036000830152611651816113ff565b9050919050565b600060208201905081810360008301526116718161143f565b9050919050565b600060208201905081810360008301526116918161147f565b9050919050565b60006020820190506116ad60008301846114f4565b92915050565b60006060820190506116c860008301866114f4565b6116d560208301856114f4565b81810360408301526116e781846112d5565b9050949350505050565b6000604051905081810181811067ffffffffffffffff82111715611718576117176119c4565b5b8060405250919050565b600067ffffffffffffffff82111561173d5761173c6119c4565b5b602082029050602081019050919050565b600067ffffffffffffffff821115611769576117686119c4565b5b601f19601f8301169050602081019050919050565b6000819050602082019050919050565b6000819050602082019050919050565b6000819050602082019050919050565b600081519050919050565b600081519050919050565b600081519050919050565b600081519050919050565b6000602082019050919050565b6000602082019050919050565b6000602082019050919050565b600082825260208201905092915050565b600082825260208201905092915050565b600082825260208201905092915050565b600082825260208201905092915050565b600082825260208201905092915050565b600081905092915050565b600061186c8261187f565b9050919050565b60008115159050919050565b600073ffffffffffffffffffffffffffffffffffffffff82169050919050565b6000819050919050565b82818337600083830152505050565b60005b838110156118d65780820151818401526020810190506118bb565b838111156118e5576000848401525b50505050565b6000600282049050600182168061190357607f821691505b6020821081141561191757611916611995565b5b50919050565b60006119288261189f565b91507fffffffffffffffffffffffffffffffffffffffffffffffffffffffffffffffff82141561195b5761195a611966565b5b600182019050919050565b7f4e487b7100000000000000000000000000000000000000000000000000000000600052601160045260246000fd5b7f4e487b7100000000000000000000000000000000000000000000000000000000600052602260045260246000fd5b7f4e487b7100000000000000000000000000000000000000000000000000000000600052604160045260246000fd5b6000601f19601f8301169050919050565b611a0d81611861565b8114611a1857600080fd5b50565b611a248161189f565b8114611a2f57600080fd5b5056fea2646970667358221220a349e3793ccaefd5b4d5a15670b67488dbf08056d7fda68c2688dc1bc84ae06264736f6c63430008000033",
  "immutableReferences": {},
  "source": "// SPDX-License-Identifier: MIT\r\npragma solidity ^0.8.0;\r\n\r\ncontract Voting {\r\n    address public admin;\r\n    address[] public voters;\r\n\r\n    // Mapping to track whether an address has voted\r\n    mapping(address => bool) public hasVoted;\r\n\r\n    struct Poll {\r\n        string question;\r\n        string[] options;\r\n        mapping(uint => uint) votes; // Mapping to store votes for each option\r\n        mapping(string => bool) usedQrCodes; // Mapping to track used QR codes\r\n    }\r\n\r\n    Poll[] public polls;\r\n\r\n    // Event to log when a vote is cast\r\n    event Voted(address indexed voter, uint256 pollIndex, uint256 optionIndex, string qrCode);\r\n\r\n    constructor() {\r\n        admin = msg.sender;\r\n    }\r\n\r\n    // Create a new poll\r\n    function createPoll(string memory _question, string[] memory _options) public {\r\n        require(msg.sender == admin, \"Only the admin can create polls.\");\r\n        Poll storage newPoll = polls.push();\r\n        newPoll.question = _question;\r\n        for (uint i = 0; i < _options.length; i++) {\r\n            newPoll.options.push(_options[i]);\r\n        }\r\n    }\r\n\r\n    // Function to get the count of polls i.e total\r\n    function pollsCount() public view returns (uint) {\r\n        return polls.length;\r\n    }\r\n\r\n    // Get poll options for a specific poll index\r\n    function getPollOptions(uint _pollIndex) public view returns (string[] memory) {\r\n        return polls[_pollIndex].options;\r\n    }\r\n\r\n    function getPollQuestion(uint _pollIndex) public view returns (string memory){\r\n        return polls[_pollIndex].question;\r\n    }//was undefined before\r\n\r\n    // Vote in a poll\r\n    function vote(uint256 pollIndex, uint256 optionIndex, string memory qrCode) public {\r\n        // Ensure that the sender hasn't already voted\r\n        require(!hasVoted[msg.sender], \"You have already voted\");\r\n\r\n        // Ensure the poll exists and the optionIndex is valid..for edges cases\r\n        require(pollIndex < polls.length, \"Invalid poll index\");\r\n        Poll storage poll = polls[pollIndex];\r\n        require(optionIndex < poll.options.length, \"Invalid option index\");\r\n\r\n        // Ensure the QR code hasn't been used before\r\n        require(!poll.usedQrCodes[qrCode], \"This QR code has already been used\");\r\n\r\n        // Process the vote (increment the vote count for the selected option)\r\n        poll.votes[optionIndex]++;\r\n\r\n        // Mark the sender as having voted\r\n        hasVoted[msg.sender] = true;\r\n\r\n        // Mark the QR code as used..will have to implement again in js\r\n        poll.usedQrCodes[qrCode] = true;\r\n\r\n        // Inside the vote function\r\n        voters.push(msg.sender);\r\n\r\n        // Emit the vote event with QR code\r\n        emit Voted(msg.sender, pollIndex, optionIndex, qrCode);\r\n    }\r\n\r\n    // Get poll results\r\n    function getResults(uint _pollIndex) public view returns (uint[] memory) {\r\n        require(_pollIndex < polls.length, \"Poll does not exist.\");\r\n        Poll storage poll = polls[_pollIndex];\r\n        uint[] memory results = new uint[](poll.options.length);\r\n        for (uint i = 0; i < poll.options.length; i++) {\r\n            results[i] = poll.votes[i];\r\n        }\r\n        return results;\r\n    }\r\n\r\n    function getVoters() public view returns (address[] memory) {\r\n        return voters;\r\n    }\r\n\r\n    // For specific polls\r\n    function getPollVotes(uint256 _pollIndex) public view returns (uint256[] memory) {\r\n        Poll storage poll = polls[_pollIndex];\r\n        uint256[] memory votes = new uint256[](poll.options.length);\r\n\r\n        for (uint256 i = 0; i < poll.options.length; i++) {\r\n            votes[i] = poll.votes[i];\r\n        }\r\n\r\n        return votes;\r\n    }\r\n}\r\n",
  "sourcePath": "C:\\Users\\shoai\\OneDrive\\Desktop\\STUDY\\simple-voting-system\\contracts\\Voting.sol",
  "compiler": {
    "name": "solc",
    "version": "0.8.0+commit.c7dfd78e.Emscripten.clang"
  },
  "schemaVersion": "3.4.16",
  "updatedAt": "2025-01-31T16:01:17.450Z",
  "networkType": "ethereum",
  "devdoc": {
    "kind": "dev",
    "methods": {},
    "version": 1
  },
  "userdoc": {
    "kind": "user",
    "methods": {},
    "version": 1
  }
}